{
  "contractName": "AIList",
  "abi": [
    {
      "constant": true,
      "inputs": [
        {
          "name": "",
          "type": "uint256"
        }
      ],
      "name": "tasks",
      "outputs": [
        {
          "name": "name",
          "type": "string"
        },
        {
          "name": "completed",
          "type": "bool"
        }
      ],
      "payable": false,
      "stateMutability": "view",
      "type": "function",
      "signature": "0x8d977672"
    },
    {
      "anonymous": false,
      "inputs": [
        {
          "indexed": false,
          "name": "id",
          "type": "uint256"
        },
        {
          "indexed": false,
          "name": "name",
          "type": "string"
        }
      ],
      "name": "newTask",
      "type": "event",
      "signature": "0x03a6cc1787d8a4d858a116bd66b597a63e18fcbc1ea9ba90bcdae376cef43555"
    },
    {
      "constant": false,
      "inputs": [
        {
          "name": "_name",
          "type": "string"
        }
      ],
      "name": "saveTask",
      "outputs": [],
      "payable": false,
      "stateMutability": "nonpayable",
      "type": "function",
      "signature": "0x17c44f40"
    },
    {
      "constant": true,
      "inputs": [
        {
          "name": "_owner",
          "type": "address"
        }
      ],
      "name": "getTaskId",
      "outputs": [
        {
          "name": "",
          "type": "uint256[]"
        }
      ],
      "payable": false,
      "stateMutability": "view",
      "type": "function",
      "signature": "0x58a36705"
    },
    {
      "constant": false,
      "inputs": [
        {
          "name": "_taskId",
          "type": "uint256"
        }
      ],
      "name": "completeTask",
      "outputs": [],
      "payable": false,
      "stateMutability": "nonpayable",
      "type": "function",
      "signature": "0xe1e29558"
    }
  ],
  "bytecode": "0x608060405234801561001057600080fd5b5061088f806100206000396000f3fe608060405260043610610062576000357c0100000000000000000000000000000000000000000000000000000000900463ffffffff16806317c44f401461006757806358a367051461012f5780638d977672146101d5578063e1e2955814610294575b600080fd5b34801561007357600080fd5b5061012d6004803603602081101561008a57600080fd5b81019080803590602001906401000000008111156100a757600080fd5b8201836020820111156100b957600080fd5b803590602001918460018302840111640100000000831117156100db57600080fd5b91908080601f016020809104026020016040519081016040528093929190818152602001838380828437600081840152601f19601f8201169050808301925050505050505091929192905050506102cf565b005b34801561013b57600080fd5b5061017e6004803603602081101561015257600080fd5b81019080803573ffffffffffffffffffffffffffffffffffffffff1690602001909291905050506104a3565b6040518080602001828103825283818151815260200191508051906020019060200280838360005b838110156101c15780820151818401526020810190506101a6565b505050509050019250505060405180910390f35b3480156101e157600080fd5b5061020e600480360360208110156101f857600080fd5b81019080803590602001909291905050506105d4565b604051808060200183151515158152602001828103825284818151815260200191508051906020019080838360005b8381101561025857808201518184015260208101905061023d565b50505050905090810190601f1680156102855780820380516001836020036101000a031916815260200191505b50935050505060405180910390f35b3480156102a057600080fd5b506102cd600480360360208110156102b757600080fd5b81019080803590602001909291905050506106ac565b005b6000600160006040805190810160405280858152602001600015158152509080600181540180825580915050906001820390600052602060002090600202016000909192909190915060008201518160000190805190602001906103349291906107be565b5060208201518160010160006101000a81548160ff0219169083151502179055505050039050336001600083815260200190815260200160002060006101000a81548173ffffffffffffffffffffffffffffffffffffffff021916908373ffffffffffffffffffffffffffffffffffffffff160217905550600260003373ffffffffffffffffffffffffffffffffffffffff1673ffffffffffffffffffffffffffffffffffffffff168152602001908152602001600020600081548092919060010191905055507f03a6cc1787d8a4d858a116bd66b597a63e18fcbc1ea9ba90bcdae376cef4355581836040518083815260200180602001828103825283818151815260200191508051906020019080838360005b83811015610464578082015181840152602081019050610449565b50505050905090810190601f1680156104915780820380516001836020036101000a031916815260200191505b50935050505060405180910390a15050565b606080600260008473ffffffffffffffffffffffffffffffffffffffff1673ffffffffffffffffffffffffffffffffffffffff168152602001908152602001600020546040519080825280602002602001820160405280156105145781602001602082028038833980820191505090505b509050600080905060008090505b6000805490508110156105c9578473ffffffffffffffffffffffffffffffffffffffff166001600083815260200190815260200160002060009054906101000a900473ffffffffffffffffffffffffffffffffffffffff1673ffffffffffffffffffffffffffffffffffffffff1614156105bc578083838151811015156105a557fe5b906020019060200201818152505081806001019250505b8080600101915050610522565b508192505050919050565b6000818154811015156105e357fe5b9060005260206000209060020201600091509050806000018054600181600116156101000203166002900480601f01602080910402602001604051908101604052809291908181526020018280546001816001161561010002031660029004801561068f5780601f106106645761010080835404028352916020019161068f565b820191906000526020600020905b81548152906001019060200180831161067257829003601f168201915b5050505050908060010160009054906101000a900460ff16905082565b6001600082815260200190815260200160002060009054906101000a900473ffffffffffffffffffffffffffffffffffffffff1673ffffffffffffffffffffffffffffffffffffffff163373ffffffffffffffffffffffffffffffffffffffff16141515610782576040517f08c379a00000000000000000000000000000000000000000000000000000000081526004018080602001828103825260088152602001807f436865636b20494400000000000000000000000000000000000000000000000081525060200191505060405180910390fd5b600160008281548110151561079357fe5b906000526020600020906002020160010160006101000a81548160ff02191690831515021790555050565b828054600181600116156101000203166002900490600052602060002090601f016020900481019282601f106107ff57805160ff191683800117855561082d565b8280016001018555821561082d579182015b8281111561082c578251825591602001919060010190610811565b5b50905061083a919061083e565b5090565b61086091905b8082111561085c576000816000905550600101610844565b5090565b9056fea165627a7a7230582097feb4203f299ed9e6a50bc62b867f3c3249d84cf5973a7728dfd867388581dc0029",
  "source": "pragma solidity ^0.5.0;\r\n\r\ncontract AIList {\r\n    struct Task{\r\n        string name;\r\n        bool completed;\r\n    }\r\n    event newTask(uint id, string name);\r\n    Task[] public tasks;\r\n    mapping (uint => address) taskToOwner;\r\n    mapping (address => uint) ownerTaskCounter;\r\n    function saveTask(string memory _name) public {\r\n        uint id = tasks.push(Task(_name, false))-1;\r\n        // ...taskToOwnerへの処理。\r\n        // ...ownerTaskCounterへの処理。\r\n        taskToOwner[id] = msg.sender;\r\n        ownerTaskCounter[msg.sender]++;\r\n        emit newTask(id, _name);\r\n    }\r\n    function getTaskId(address _owner) public view returns(uint[] memory){\r\n        uint[] memory result = new uint[](ownerTaskCounter[_owner]);\r\n        uint counter = 0;\r\n        for (uint i = 0; i < tasks.length; i++) {\r\n            if (taskToOwner[i] == _owner) {\r\n            result[counter] = i;\r\n            counter++;\r\n            }\r\n        }\r\n        return result;\r\n    }\r\n    function completeTask(uint _taskId) public {\r\n        require(msg.sender == taskToOwner[_taskId],\"Check ID\");\r\n        tasks[_taskId].completed = true;\r\n    }\r\n\r\n}",
  "sourcePath": "C:/Users/Hp/Desktop/Ai-list/truffle-dapps/contracts/aiList.sol",
  "compiler": {
    "name": "solc",
    "version": "0.5.0+commit.1d4f565a.Emscripten.clang"
  },
  "schemaVersion": "3.0.6",
  "updatedAt": "2019-05-21T08:26:47.994Z",
  "devdoc": {
    "methods": {}
  },
  "userdoc": {
    "methods": {}
  }
}